:020000040800F2
:100000000020002089210008C11B0008C31B000834
:10001000C51B0008C71B0008C91B00080000000022
:10002000000000000000000000000000CB1B0008E2
:10003000CD1B000800000000CF1B0008D11B0008EA
:10004000CD210008CD210008CD210008CD210008D8
:10005000CD210008CD210008191E0008CD2100087F
:10006000CD210008CD210008CD210008CD210008B8
:10007000CD210008CD210008CD210008CD210008A8
:10008000CD210008CD210008CD210008CD21000898
:10009000CD210008CD210008CD210008CD21000888
:1000A000CD210008CD210008CD210008CD21000878
:1000B000CD210008811F0008CD210008CD210008B6
:1000C000CD210008CD210008CD210008CD21000858
:1000D000CD210008651D0008CD210008CD210008B4
:1000E000CD210008CD210008CD210008CD21000838
:1000F000CD210008CD210008CD210008CD21000828
:10010000CD210008CD210008CD210008CD21000817
:10011000CD210008CD210008CD210008CD21000807
:10012000CD210008CD210008CD210008CD210008F7
:1001300000000000000000000000000000000000BF
:1001400000000000000000000000000000000000AF
:10015000000000000000000000000000000000009F
:10016000000000000000000000000000000000008F
:10017000000000000000000000000000000000007F
:10018000000000000000000000000000000000006F
:10019000000000000000000000000000000000005F
:1001A000000000000000000000000000000000004F
:1001B000000000000000000000000000000000003F
:1001C000000000000000000000000000000000002F
:1001D000000000000000000000000000000000001F
:0401E0005FF8E0F1F3
:1001E40010B5054C237833B9044B13B10448AFF36D
:1001F40000800123237010BD8C000020000000004B
:10020400E401000808B5034B1BB103490348AFF3ED
:10021400008008BD0000000090000020E4010008F8
:1002240040F0BF6040F40030014BD860704700BF1D
:1002340000ED00E0C378FBB1154BDA68D243C2F39A
:100244000222C2F1040C0F2323FA02F2417801FACC
:100254000CF1837813400B431B010278DBB20D4988
:100264000A4482F80033037803F01F005B0901227B
:10027400824041F823207047037803F01F015B0993
:1002840001228A402033034941F82320704700BFEC
:1002940000ED00E000E100E08379002B35D010B4DC
:1002A4001F4B1A68016822EA01021A605A68016841
:1002B40022EA01025A60027902F1804202F5823296
:1002C40011680468214311609A68016822EA0102F6
:1002D4009A60DA68016822EA0102DA604379102B35
:1002E40009D003F1804303F582331A6801680A4395
:1002F4001A6010BC70470A4B9A6801680A439A60F6
:10030400DA6801680A43DA60F3E7037903F18043AA
:1003140003F582331A68016822EA01021A60704701
:1003240000040140014B5861704700BF00040140C4
:1003340030B5CB7803F00F02964613F0100F03D0BC
:1003440091F802E04EEA020E0B7803B3046800232E
:1003540001E042610133072B18D801229A40B1F819
:1003640000C032EA0C05F5D14FEA830C0F2505FADB
:100374000CF524EA05040EFA0CFC4CEA0404CD78CE
:10038400282DE6D0482DE5D10261E3E704600B880F
:10039400FF2B25D94468002303E0CD78482D1CD0D9
:1003A4000133072B1BD803F1080C012202FA0CF2CB
:1003B400B1F800C032EA0C05F2D14FEA830C0F25E4
:1003C40005FA0CF524EA05040EFA0CFC4CEA0404C4
:1003D400CD78282DE1D14261DFE70261E0E7446096
:1003E40030BD016170474161704700000D4B1A68D0
:1003F40042F001021A6059680B4A0A405A601A68AE
:1004040022F0847222F480321A601A6822F4802264
:100414001A605A6822F4FE025A604FF41F029A606E
:10042400704700BF001002400000FFF810B4294BD1
:100434005B6803F00C03042B2BD0082B2CD013B1D6
:10044400254B036001E0244B036022494B68C3F34E
:100454000313224CE35CDAB20368D34043604A6876
:10046400C2F30222A25CD2B223FA02F282604A6888
:10047400C2F3C222A25CD2B2D340C3604A68C2F3C0
:10048400813217498A5CD2B2B3FBF2F3036110BC28
:100494007047114B0360D8E70E4A53685268C3F3A0
:1004A4008343023312F4803F04D10E4A02FB03F368
:1004B4000360CAE7074A526812F4003F04D0094AAD
:1004C40002FB03F30360C0E7034A02FB03F3036088
:1004D400BBE700BF0010024000127A0004000020B5
:1004E4000000002000093D0021B1054A936918432A
:1004F40090617047024A936923EA00009061704753
:100504000010024021B1054AD3691843D0617047F5
:10051400024AD36923EA0000D06170470010024008
:1005240000B5B0F820E01FFA8EFE2EF0010E1FFA7F
:100534008EFEA0F820E0B0F818C01FFA8CFCB0F8CA
:1005440020E01FFA8EFE2CF0F30C1B019BB2134328
:100554004CEA030C124A904217D0124B984214D022
:10056400B0F1804F11D0A3F5983398420DD003F524
:100574008063984209D003F58063984205D02EF039
:100584000A03194341F0010104E02EF00203194368
:1005940041F00101A0F818C001845DF804FB00BF1C
:1005A400002C01400034014010B5B0F820C01FFAFF
:1005B4008CFC2CF0100C1FFA8CFCA0F820C0B0F8B6
:1005C40018E0B0F820C01FFA8CFC0C01A4B22EF481
:1005D400407E4FEA0E5E4FEA1E5E1B039BB243EA67
:1005E4000E03120292B21A43134B984219D003F528
:1005F4000063984215D0B0F1804F12D0A3F5983320
:1006040098420ED003F5806398420AD003F58063C4
:10061400984206D02CF0A00C4CEA010C4CF0100CC3
:1006240005E02CF0200C4CEA040C4CF0100C028376
:10063400A0F820C010BD00BF002C014030B50C460E
:10064400B0F820C01FFA8CFC2CF4807C1FFA8CFCC0
:10065400A0F820C0B0F81CE01FFA8EFE018C89B20D
:100664002502ADB22EF0F30E1B019BB213434EEAEA
:100674000303124A904219D002F50062904215D049
:10068400B0F1804F12D0A2F5983290420ED002F50C
:10069400806290420AD002F58062904206D021F432
:1006A400206C4CEA040141F4807104E021F40071EF
:1006B400294341F480718383018430BD002C0140BF
:1006C40010B5B0F820C01FFA8CFC2CF4805C1FFA23
:1006D4008CFCA0F820C0B0F81CE0B0F820C01FFAD1
:1006E4008CFC0C03A4B22EF4407E4FEA0E5E4FEA5B
:1006F4001E5E120292B242EA0E021B039BB2134325
:10070400144A90421DD002F50062904219D0B0F113
:10071400804F16D0A2F59832904212D002F5806232
:1007240090420ED002F5806290420AD02CF4007CF4
:100734004FEA4C4C4FEA5C4C41EA0C0141F48051C5
:1007440004E02CF40051214341F48051838301845B
:1007540010BD00BF002C014003889BB2214A904287
:1007640012D002F5006290420ED0B0F1804F0BD04F
:10077400A2F59832904207D002F58062904203D0ED
:1007840002F58062904203D123F070034A88134338
:10079400154A904208D002F58062904204D023F4B6
:1007A40040739BB2CA88134303808B8883850B886C
:1007B40003850C4B98420FD003F5006398420BD08D
:1007C40003F54063984207D003F58063984203D051
:1007D40003F58063984201D10B7A03860123838257
:1007E400704700BF002C01400010004029B103886D
:1007F4009BB243F001030380704703889BB223F04C
:1008040001039BB20380704722B183899BB21943D1
:10081400818170478389C94389B2194081817047B6
:1008240081847047038B9BB223F00C039BB2038338
:10083400038B9BB20B4303837047038B9BB223F45C
:1008440040639BB20383038B9BB2090289B20B43BF
:1008540003837047838B9BB223F00C039BB2838387
:10086400838B9BB20B4383837047838B9BB223F4AC
:1008740040639BB28383838B9BB2090289B20B438F
:100884008383704738B505460C460B886BB1042B3F
:1008940015D0082B1DD00B898A884988FFF710FFD3
:1008A400E1882846FFF7E1FF38BD0B898A8849882B
:1008B400FFF736FEE1882846FFF7B4FFF4E70B891B
:1008C4008A884988FFF770FEE1882846FFF7B5FF5C
:1008D400EAE70B898A884988FFF7B0FEE188284651
:1008E400FFF7B8FFE0E7008F80B27047808C80B2DA
:1008F4007047038A194201D00120704700207047D5
:10090400028A83890B40114202D01BB90020704730
:100914000020704701207047C94389B201827047A3
:1009240030B587B004460D46038A9BB2CA8823F4C7
:1009340040531343038283899BB2898828896A8937
:1009440001430A4323F4B05323F00C031343A3815C
:10095400A38A9BB2AA8923F440731343A38201A8F8
:10096400FFF764FD1D4B9C4224D0039BA28912F423
:10097400004F21D103EB830303EB83032A68920026
:10098400B3FBF2F3164AA2FB0312520911016420CD
:1009940002FB1033A28912F4004F16D11B0132332B
:1009A4000F4AA2FB0323C3F343130B439BB22381DC
:1009B40007B030BD049BD9E703EB830303EB830348
:1009C4002A685200B3FBF2F3DCE7DB003233044A5B
:1009D400A2FB0323C3F342130B43E7E700380140B0
:1009E4001F85EB5129B183899BB243F40053838162
:1009F400704783899BB223F400539BB28381704771
:100A0400C1F3421C01F01F01012303FA01F19C45CB
:100A140008D0BCF1020F07D014303AB1036819436F
:100A2400016070470C30F8E71030F6E7036823EAFA
:100A3400010101607047C1F308018180704780881B
:100A4400C0F3080070470388194201D001207047A1
:100A540000207047C1F3421201F01F0C012303FA76
:100A64000CF3012A0FD0022A11D0828A92B21340C9
:100A7400090A012202FA01F1028892B20A4053B132
:100A84005AB900207047828992B21340F0E7028A73
:100A940092B21340ECE70020704701207047000039
:100AA400064B08229A61A3F582335A6842F00F027A
:100AB4005A605A6822F00C025A60704700100240D3
:100AC40038B50C46104B1B68834204D30F4B1B688C
:100AD400A3420CD838BD0E4D0123C5F8A0314FF404
:100AE400FA7000F047F80023C5F8A031EEE7084C8F
:100AF4000123C4F8A0314FF4FA7000F03BF800234E
:100B0400C4F8A031E6E700BF24000020300500202F
:100B1400008021424FF0E022136923F004031361A3
:100B2400C008054B1870C0EB401300EB8300C000F5
:100B3400024B1880704700BFAA000020A8000020C4
:100B44000B4B1B7803FB00F04FF0E02358610022AD
:100B54009A6101221A614FF0E0231B6903F001132B
:100B6400012BF8D04FF0E02300221A619A617047FC
:100B7400AA0000200B4B1B8803FB00F04FF0E0237E
:100B8400586100229A6101221A614FF0E0231B6927
:100B940003F00113012BF8D04FF0E02300221A6177
:100BA4009A617047A80000200E4B1B8803FB00F0DD
:100BB4004FF0E023586100229A611A6942F0010261
:100BC4001A614FF0E0231B6903F00113012BF8D0E5
:100BD4004FF0E0231A6922F001021A6100229A619F
:100BE400704700BFA800002010B584B000F020F8C2
:100BF40001210846FFF778FC012402948DF80E4089
:100C040000238DF80C300C238DF80D3002A8FFF76B
:100C140043FB06238DF804308DF807408DF805401A
:100C240002238DF8063001A8FFF704FB04B010BDC1
:100C340000B583B001214420FFF756FC1823ADF81A
:100C4400043048238DF8073001A90848FFF770FBEA
:100C54000123ADF8043028238DF8073001A9044896
:100C6400FFF766FB03B05DF804FB00BF001801400A
:100C74000008014010B501280BD0244B1C78012C2E
:100C84000BD0234BD3F81031012B29D0002420465C
:100C940010BD1E4B01221A70EFE71D4BD3F8103123
:100CA40043B11B4BD3F80C3123B11A4BD3F80031A9
:100CB400012BE6D13220FFF777FF144B00221A7084
:100CC400134BD3F81031002BE1D0114BD3F80C3176
:100CD400B3B1104BD3F80031012B13D01446D6E72F
:100CE4000B4BD3F80C31012B01D00024CFE7094B77
:100CF400D3F8003143B9054B01221A700024C6E72A
:100D04000224C4E70324C2E70024C0E7140000203F
:100D14000000234200002142124B9A6942F008026B
:100D24009A619A6942F040029A61A3F582331A6883
:100D340022F470021A601A6842F440121A60DA68E7
:100D440042F02002DA6003F540631A6822F470026C
:100D54001A601A6842F440121A60DA6842F02002FB
:100D6400DA607047001002400023114A128912F021
:100D7400020F07D101339BB24FF6FD729342F4D9AF
:100D84000020704780B20A4B98810023084A1289D8
:100D940012F0010F07D101339BB24FF6FD7293425B
:100DA400F4D900207047024B9889C0B2704700BF45
:100DB4000038004008B5274B9A6942F008029A614E
:100DC400DA6942F48042DA61A3F582335A6822F088
:100DD400704222F470025A605A6842F0304242F47F
:100DE40030025A60DA6842F40052DA60DA6842F497
:100DF4000042DA60A3F554431A8892B21A801A8822
:100E040092B242F400721A801A8892B242F480724A
:100E14001A801A8892B242F004021A801A8892B296
:100E24001A801A8892B242F002021A801A8892B288
:100E340042F001021A801A8892B21A801A8892B279
:100E44001A801A8892B242F040021A80FF20FFF7FB
:100E54008BFF08BD001002404FF0000C07E010F8B3
:100E64000C200C4B9A810CF1010C1FFA8CFC8C4564
:100E74000DD20023074A128912F0020FEFD1013379
:100E84009BB24FF6FD729342F4D9002070470120C3
:100E9400704700BF003800402DE9F04184B004469B
:100EA4000F46164601210220FFF72CFB1D238DF867
:100EB400003001258DF803504FF000088DF80180B3
:100EC40003238DF802306846FFF7B4F92A46294611
:100ED4002046FFF799FCADF80A80ADF80680ADF81E
:100EE4000870ADF8046001A92046FFF735FC2946D7
:100EF4002046FFF77BFC04B0BDE8F08130B583B039
:100F040001210420FFF7F0FA0225ADF80450102364
:100F14008DF8073003238DF806300F4C01A92046C5
:100F2400FFF706FA29462046FFF75DFA0520FFF78A
:100F340021FE0A4D00212846FFF772FC05212846B0
:100F4400FFF7EAFC04238DF807300DEB030120467C
:100F5400FFF7EEF903B030BD00080140000C00407B
:100F640008B5FFF7CBFF04210948FFF7C2FC50B9CD
:100F74000748FFF7BBFC4FF60B639842F3D90448CC
:100F8400FFF7B4FC02E00248FFF7ADFC08BD00BF68
:100F9400000C004038B5002500E02046431EDCB2BA
:100FA40028B1FFF7DDFF8542F7D20546F5E728466D
:100FB40038BD000008B5C8B10F4B00221A700620D6
:100FC400FFF7E8FF0D4B1B889BB26433984211DD99
:100FD400094B1B7863B10020074B03221A70064BA0
:100FE4001B7813B1013B044A137008BD0320E7E7E3
:100FF4000120F1E70020F2E7AB000020AC00002064
:10100400F0B589B005460C4601210820FFF77AFAAD
:1010140001210420FFF768FA0223ADF81C300327EE
:101024008DF81E7004268DF81F6007A91248FFF77B
:101034007FF9ADF81450ADF810400024ADF8164017
:10104400ADF812400D4D04A92846FFF785FBADF815
:101054000460ADF806400126ADF80860ADF80A401A
:10106400ADF80C7001A92846FFF70CFC3146284660
:10107400FFF7BCFB09B0F0BD00080140000C0040C4
:1010840010B586B0411E89B24FF6FF70FFF7B8FF66
:1010940000240BE0FFF764FF06AB03EB440323F8E3
:1010A400140C0A20FFF766FD0134E4B2092CF1D9CF
:1010B40000201CE00133DBB2092B17D806AA02EB8F
:1010C400400232F8142C06A901EB430131F8141C38
:1010D4008A42EFD90DF1180C0CEB400C2CF8141CBF
:1010E40006A901EB430121F8142CE3E72046082864
:1010F40003D8441CE4B22346DEE702230022072B74
:1011040009D806A901EB430131F8141C0A4492B230
:101114000133DBB2F3E7084BA3FB0223C3F38F03D2
:10112400064A1380138813F4004F02D1002006B03E
:1011340010BD0120FBE700BFABAAAAAAAC000020A7
:1011440070B586B0054601214FF48040FFF7CCF915
:1011540001210420FFF7C8F918238DF817304FF444
:101164000073ADF8143001248DF816401D4E05A906
:101174003046FFF7DDF804238DF817304FF4806311
:10118400ADF814308DF8164005A93046FFF7D0F8B5
:1011940001950023ADF810300C22ADF80E20ADF807
:1011A4000C30ADF80A30ADF808300F4D2146284612
:1011B400FFF718FC01A92846FFF7B2FB224640F2CC
:1011C40025512846FFF71CFC25238DF800308DF8A7
:1011D40003408DF801408DF802406846FFF72AF875
:1011E40006B070BD000801400038014010B5044647
:1011F40009E00748FFF71FFC013440210448FFF7CA
:1012040022FC0128F9D121780029F2D110BD00BFB8
:101214000038014010B50B4B1A6822F00F021A6017
:101224001A6842F003021A60074C0023C4F88031A4
:101234001420FFF79FFC0123C4F880311E20FFF720
:101244007FFC10BD002001400000244210B5164B65
:101254001A6822F00F021A601A6842F008021A6033
:101264000024124BD3F800313BB1632C05D8013470
:10127400E4B20120FFF764FCF3E7632C10D80024E8
:1012840004E00134E4B20120FFF75AFC074BD3F821
:1012940000310BB9632CF4D9632C03D8002010BDA2
:1012A4000120FCE70120FAE700200140000024426D
:1012B40010B5002404E00134E4B20120FFF740FC3F
:1012C4000F4BD3F80031BBB1632CF4D9002404E0F4
:1012D4000134E4B20120FFF733FC094BD3F80031A9
:1012E4000BB9632CF4D92820FFF72AFC044BD3F85C
:1012F40000311BB1012010BD0024EEE70020FAE705
:101304000000244238B50020054607E04000C4B27E
:10131400FFF7CEFF2043C0B20135EDB2072DF5D95A
:1013240038BDF0B583B005460E46FFF773FFFFF7EF
:101334008DFF10B9074604460AE0012719E0FFF7BC
:10134400E1FF04F108036B4403F8080C0134E4B230
:10135400042CF4D99DF800109DF801300B449DF83D
:10136400022013449DF8030003449DF804008342C3
:1013740002D0384603B0F0BD31702A70F9E700009E
:1013840030B583B001214FF48070FFF7ADF801252B
:10139400ADF8045010238DF8073003238DF8063080
:1013A400074C01A92046FEF7C3FF29462046FFF754
:1013B40018F8FFF72FFFFFF749FF03B030BD00BF58
:1013C40000200140024B1880024B1980704700BF77
:1013D400AE0000201600002070B584B000208DF807
:1013E4000F0000F083F9232605E001360020FFF703
:1013F400E1FD002838D10120FFF73CFC8DF80F00F7
:101404001C4B0193102500952B46F0220021084621
:1014140000F0DCFA184B0193202400942346F022B8
:101424002946002000F0D2FA144B0193009423467D
:10143400F0223021002000F0C9FA00230193009427
:10144400042332467821502000F06EFA9DF80F30C4
:10145400DBB2022BC9D0032B03D0012BC6D1013E32
:10146400C4E7074B1E60C1E7002000F03FF904B059
:1014740070BD00BF743100088C3100089831000839
:101484002400002070B584B000208DF80F0000F017
:101494002DF9322605E001360020FFF78BFD0028E8
:1014A40038D10120FFF7E6FB8DF80F001C4B0193A8
:1014B400102500952B46F0220021084600F086FAFC
:1014C400184B0193202400942346F022294600203F
:1014D40000F07CFA144B019300942346F02230214F
:1014E400002000F073FA0023019300940423324691
:1014F4007821502000F018FA9DF80F30DBB2022B4F
:10150400C9D0032B03D0012BC6D1013EC4E7074B3E
:101514001E60C1E7002000F0E9F804B070BD00BF10
:10152400743100088C31000898310008300500201F
:101534000246012002E002FB00F019464B1EDBB21A
:101544000029F8D170470000F8B506460F46104D43
:10155400A5FB0135ED0B00240DE0C4EB04400C4B5E
:10156400A3FB0723DB0BC3EB0343FB1A99B2304401
:10157400FFF772FC0134AC4209D8AC42EDD0C4EBA5
:1015840004404FF6FF713044FFF766FCF2E7F8BD04
:101594000180008000B583B08DF807000121054B60
:1015A400C3F8B8110DF10700FFF7CEFF03B05DF8E3
:1015B40004FB00BF0080214200B583B08DF8070012
:1015C400054B0022C3F8B82101210DF10700FFF7F4
:1015D400BBFF03B05DF804FB0080214210B5FFF7A8
:1015E400E9FB204B9A6942F008029A619A6942F435
:1015F40080729A61A3F582335A6822F070625A604D
:101604005A6842F040725A60DA6842F48042DA6002
:1016140003F5A0531A6822F07F421A601A6842F058
:101624004C521A60DA6842F0C002DA605A6822F05A
:101634000F025A605A6842F003025A60DA6842F4B0
:101644008072DA60084C0023C4F89C31C4F8A031DD
:10165400C4F898317820FFF78DFA0123C4F8983143
:1016640010BD00BF001002400000244200B583B04A
:101674000023ADF80430030A8DF804308DF805001A
:10168400054B0122C3F8B821022101A8FFF75CFF32
:1016940003B05DF804FB00BF00802142F8B50746A3
:1016A4000D4616461C462A20FFF786FF380AFFF728
:1016B40071FFF8B2FFF76EFF300AFFF76BFFF0B26D
:1016C400FFF768FF2B20FFF777FF280AFFF762FF79
:1016D400E8B2FFF75FFF200AFFF75CFFE0B2FFF715
:1016E40059FF2C20FFF768FFF8BD000070B582B0E9
:1016F4000024ADF80440060A8DF80460C5B28DF8E4
:101704000550EF231A4621462046FFF7C7FF21461E
:1017140007E04B000D4A02F811600133D554013142
:1017240089B2B1F5107FF4D3094B0122C3F8B82173
:10173400002406E04FF490610448FFF705FF0134EC
:10174400A4B2632CF6D902B070BD00BFB000002073
:101754000080214270B5BDF81040161A5D1A01359B
:1017640006FB05556D00B5F5906F06D9A5F5906695
:101774004FF49065FFF792FF03E00026FAE7354641
:101784000026002308E05A000D49200A01F813003E
:1017940001328C5401339BB2B3EB550FF3D3094B95
:1017A4000122C3F8B82129460548FFF7CDFE2EB122
:1017B400B6F5906FE3D9A6F59066E2E770BD00BF79
:1017C400B0000020008021422DE9F8431F465E0846
:1017D400C6F1F003984206DC203A5FFA82F8C7F1BA
:1017E400F003994201DDBDE8F883821992B2CB1966
:1017F4009BB2013B013A9BB292B2FFF74FFF102F0D
:101804000AD0202F08D00C2F35D0182FEBD17F0011
:10181400FFB24FF000096BE017F0070318BF012374
:1018240003EBD70303FB06F65FFA86F9002616E0FE
:10183400374B03EB08139D5D1BE0364B1888FFF70D
:1018440015FF6D00EDB20134E4B2072C05D815F094
:10185400800FF2D1304B1888F1E70136F6B24E45CD
:10186400C1D2102FE4D0202FBDD12C4B03EBC813D1
:101874009D5D0024E9E717F0070318BF012303EB7C
:10188400D70303FB06F6F6B2002711E0214B1888B4
:10189400FFF7ECFE6D00EDB20134E4B2052C05D87F
:1018A40015F0800FF2D11C4B1888F1E70137FFB215
:1018B400B74298D208EB4803194A02EB8303DD5D73
:1018C4000024EBE7042621E0124B1888FFF7CEFE34
:1018D4006D00EDB20134E4B2B44205D215F0800FCC
:1018E400F2D10D4B1888F1E709F101095FFA89F982
:1018F400B945BFF478AF08EB48030A4A02EB031377
:1019040013F8095019F0010FDCD108260024E3E78D
:1019140018360008AE00002016000020D84D00083C
:10192400A4310008083C00082DE9F84F8246894696
:1019340090461D469DF828609DF82CB000273C4633
:1019440022E0BBF1000F09D0700800FB04A033466D
:101954003022494680B2FFF737FF13E0700800FBDE
:1019640004A033462022494680B2FFF72DFF09E048
:101974007008303200FB04A03346D2B2494680B22C
:10198400FFF722FF0134E4B2AC421AD2291BC9B2D8
:101994000139C9B20A20FFF7CBFDB8FBF0F00A4ABF
:1019A400A2FB0032D20802EB8202A0EB4202D2B2C6
:1019B400002FDDD16B1E9C42DADA002AC1D0012748
:1019C400D6E7BDE8F88F00BFCDCCCCCC2DE9F047ED
:1019D40082460D469DF82070099E02441FFA82F942
:1019E4000B441FFA83F804460AE0454515D23B46EA
:1019F40029462046FFF7E8FE04EB5704A4B201365B
:101A04003278A2F12003DBB25E2B06D84C45ECD32E
:101A14005FFA8AF43D44ADB2E7E7BDE8F087000021
:101A240008B5FFF7DBFD7820FFF7A4F81120FFF7D6
:101A3400C3FD7820FFF79EF83620FFF7BDFD002098
:101A4400FFF7A8FD3A20FFF7B7FD6520FFF7A2FDD9
:101A5400B220FFF7B1FD0C20FFF79CFD0C20FFF72F
:101A640099FD0020FFF796FD3320FFF793FD332007
:101A7400FFF790FDB720FFF79FFD7220FFF78AFD67
:101A8400BB20FFF799FD3D20FFF784FDC020FFF741
:101A940093FD2C20FFF77EFDC220FFF78DFD012072
:101AA400FFF778FDC320FFF787FD1920FFF772FDCC
:101AB400C420FFF781FD2020FFF76CFDC620FFF74F
:101AC4007BFD0F20FFF766FDD020FFF775FDA420F6
:101AD400FFF760FDA120FFF75DFDE020FFF76CFD3F
:101AE400D020FFF757FD0420FFF754FD0D20FFF72A
:101AF40051FD1120FFF74EFD1320FFF74BFD2B2066
:101B0400FFF748FD3F20FFF745FD5420FFF742FD56
:101B14004C20FFF73FFD1820FFF73CFD0D20FFF799
:101B240039FD0B20FFF736FD1F20FFF733FD23207F
:101B3400FFF730FDE120FFF73FFDD020FFF72AFD3E
:101B44000420FFF727FD0C20FFF724FD1120FFF7E9
:101B540021FD1320FFF71EFD2C20FFF71BFD3F2066
:101B6400FFF718FD4420FFF715FD5120FFF712FD84
:101B74002F20FFF70FFD1F20FFF70CFD1F20FFF79D
:101B840009FD2020FFF706FD2320FFF703FD212098
:101B9400FFF712FD2920FFF70FFDEF231A4600215E
:101BA4000846FFF77BFD4FF6FF70FFF79FFD024BE2
:101BB4000122C3F8A02108BD000024427047FEE7BB
:101BC400FEE7FEE7FEE77047704770477047000086
:101BD40010B50446FEF70AFC184A136843F4803330
:101BE4001360164B1B685B0CFBD0144B4FF48062E4
:101BF4005A60023CE4B25A6842EA84445C605A681F
:101C040042F480325A600E490A6842F032020A6095
:101C14001A6842F080721A60084B1B685B0EFBD096
:101C2400064A536843F002035360002303E0034B66
:101C34005B68C3F38103022BF9D110BD001002408D
:101C44000020024082B00023019300932C4A1368C1
:101C540043F4803313602A4B1B6803F4003300936E
:101C6400019B01330193009B1BB9019BB3F5A06F4A
:101C7400F1D1234B1B6813F4003F06D001230093DA
:101C8400009B012B04D002B0704700230093F7E7B8
:101C94001C4B1A6842F010021A601A6822F0030200
:101CA4001A601A6842F002021A60A3F580535A6857
:101CB4005A605A685A605A6842F480625A605A6894
:101CC40022F47C125A605A6842F4E8125A601A6884
:101CD40042F080721A600A4B1B6813F0007FFAD03E
:101CE400074B5A6822F003025A605A6842F0020213
:101CF4005A60034B5B6803F00C03082BF9D1C2E76D
:101D0400001002400020024008B5FFF79BFF08BD09
:101D140008B5104B1A6842F001021A6059680E4A5D
:101D24000A405A601A6822F0847222F480321A60DF
:101D34001A6822F480221A605A6822F4FE025A6059
:101D44004FF41F029A60FFF7DFFF044B4FF000626D
:101D54009A6008BD001002400000FFF800ED00E0AA
:101D640008B540F225512348FEF774FE00B908BDBA
:101D74002048FEF764FEC0B271280FD0772819D02E
:101D8400642823D0662826D0612829D073282CD033
:101D94003028ECD11848FFF729FAE8E7174B1A68FE
:101DA400174B1968174800F0F5FA4FF4FA70FEF76C
:101DB400E1FEDCE7144B1A68144B1968144800F070
:101DC400E9FA4FF4FA70FEF7D5FED0E70E4A13682D
:101DD40001331360CBE70C4A1368013B1360C6E779
:101DE4000A4A136801331360C1E7084A1368013BC8
:101DF4001360BCE7003801409C7D00081C000020F3
:101E040020000020587D0008300500202400002018
:101E1400707D000830B585B000258DF80F50504B0B
:101E2400C3F8A051FEF778FF4820FEF773FEFEF7D3
:101E3400FFFE2846FFF75AFC19E015F0010F4DD1BB
:101E44004FF4784300935223F02232210020FFF70D
:101E540081FC002000908423F0226421FFF77AFCA7
:101E64000135EDB20020FFF7A5F800284AD1002083
:101E7400FEF700FF8DF80F004FF6FF710020FFF70B
:101E8400A1FA384B0193202400942346F022002128
:101E94003C20FFF79BFD344B019300942346F02232
:101EA40032210020FFF792FD304B0193009423462A
:101EB400F02264210020FFF789FD9DF80F30002BEC
:101EC400D0D09DF80F30DBB2012BB6D0022BC9D194
:101ED40015F0010F13D1FFF7D5FAC3E74FF4784398
:101EE40000938423F02264210020FFF733FC0020B8
:101EF40000905223F0223221FFF72CFCB0E7FFF7C9
:101F04006BFAAFE70020FFF7F1FB4FF6FF714FF4D8
:101F14007840FFF757FA0020FFF7E8FB144B0193D2
:101F2400202400942346F02200210846FFF74EFDAA
:101F3400104B019300942346F02250210020FFF718
:101F440045FD0D4B019300942346F0229D21002072
:101F5400FFF73CFD0120FEF7E5F905B030BD00BFF9
:101F640000802142A87D0008B07D0008BC7D0008E7
:101F7400C87D0008D47D0008E07D000810B501216B
:101F84000E48FEF7BDFC00B910BD0D4CD4F89431D9
:101F9400B3FA83F35B09C4F894314FF4FA70FEF793
:101FA400E9FDD4F89431B3FA83F35B09C4F89431AE
:101FB40001210248FEF7B0FCE6E700BF0004004040
:101FC4000080214210B582B00024FFF7D9F9E8B1AE
:101FD4000020FFF78BFB0E4B019310230093C822C4
:101FE40082211E20FFF7F2FCC820FEF7C3FD4FF646
:101FF400FF7300939223EF2282211E20FFF7AAFB96
:10200400C820FEF7B7FD0134142CDEDD02B010BD8C
:10201400E87D000810B582B04FF6FF714FF47840A8
:10202400FFF7D0F90020FFF761FB0F4B0193202449
:1020340000942346F02200210846FFF7C7FC0B4B0F
:10204400019300942346F02250210020FFF7BEFCA8
:10205400074B019300942346F0229D210020FFF7B3
:10206400B5FC02B010BD00BFC87D0008D47D0008D7
:10207400E07D000880B582B00920FFF7A9FD4FF488
:10208400A060FEF7CDF84820FEF744FDFEF744FEBD
:10209400FEF706FDFEF7CCFDFFF7C2FCFEF7A4FD3C
:1020A4000620FEF7EDFF4FF46120FFF749F841F6F3
:1020B4001F424CF24F312248FEF7EEFEFFF782FF3B
:1020C400FFF7A8FF1F4E204F31463846FFF729F986
:1020D4004FF6FF711F20FFF775F93A680024019449
:1020E40010250095042328212046FFF71DFC3268A3
:1020F40001940095042378212046FFF715FC134B27
:102104001A68019400950423C5212046FFF70CFCAE
:102114000F4B1A68019400950323DF21B420FFF7C5
:1021240003FC0C4B1A68019400950323DF21D22091
:10213400FFF7FAFB38683168FEF7C2FCC2E700BF5C
:10214400000400401C000020200000201800002093
:10215400240000203005002070B50E4615460024EA
:102164000AE0315D0648FEF766FC40210448FEF7AC
:102174006AFC0128F9D10134AC42F2DB284670BD77
:1021840000380140002103E00A4B5B5843500431FE
:1021940009480A4B42189A42F6D3094A02E000233E
:1021A40042F8043B074B9A42F9D3FFF7B1FDFFF71E
:1021B40061FF7047AC7E0008000000208C00002006
:1021C4008C00002048050020FEE7034602449342A9
:1021D40000D1704703F8011BF9E7000038B5054644
:1021E400002940D051F8043C0C1F002BB8BFE41860
:1021F40000F0F0F91C4A136833B963601460284690
:10220400BDE8384000F0ECB9A34208D92068211891
:102214008B4201BF19685B6809182160EDE71A4613
:102224005B680BB1A342FAD911685018A0420BD1D4
:1022340020680144501883421160E0D118685B683B
:10224400014411605360DAE702D90C232B60D6E70E
:10225400206821188B4201BF19685B680918216046
:1022640063605460CBE738BD3405002070B50E4E72
:102274000C463168054611B900F0A4F830602146D7
:10228400284600F09FF8431C0AD0C41C24F0030421
:10229400A04207D0211A284600F094F8013001D159
:1022A4004FF0FF34204670BD380500202DE9F04181
:1022B400CD1C25F0030508350C2D38BF0C25002D49
:1022C400074601DBA94205D90C2300263B603046B2
:1022D400BDE8F0812E4E00F07DF933681C4634BB16
:1022E40029463846FFF7C2FF431C04464DD13468E3
:1022F4002646002E40D123683146384604EB0308B5
:1023040000F060F880453AD1216803356D1A25F054
:10231400030508350C2D38BF0C2538462946FFF730
:10232400A5FF01302BD023682B4423600EE02268E4
:10233400521B1ED40B2A16D96119A342256018BF5B
:102344005960636808BF316062514B60384604F1DC
:102354000B0600F045F926F00706231DF21AB6D045
:102364009B1BA350B3E76268A3420CBF32605A6060
:10237400ECE723466468B2E734467668B9E70C2391
:1023840038463B6000F02CF9A1E72560DEE700BF8A
:10239400340500200FB40A4B13B51C6824B1A3699B
:1023A40013B9204600F076F805AB2046049AA168DC
:1023B400019300F043F902B0BDE8104004B0704747
:1023C4002800002038B50023054D044608462B603C
:1023D40000F0C0FE431C02D12B6803B1236038BD5A
:1023E40040050020002310B50446C0E90033C0E9CD
:1023F4000433836081814366C28183611946082264
:102404005C30FFF7E2FE054B24626362044BA36277
:10241400044BE362044B236310BD00BFCD2B0008C3
:10242400EF2B0008272C00084B2C0008014900F072
:10243400AFB800BF1D2F0008682270B54D1E55436C
:102444000E4605F17401FFF731FF044640B1002147
:10245400C0E900160C30A06005F16802FFF7B5FE74
:10246400204670BD014800F0B3B800BF3D05002010
:10247400014800F0AEB800BF3D050020014800F05F
:10248400A7B800BF3E050020014800F0A2B800BF75
:102494003E05002010B50446FFF7F0FFA3691BB109
:1024A400BDE81040FFF7F0BFC4E912332365134BB6
:1024B400134A1B68A262A34208BF0123204608BF37
:1024C400A36100F01FF86060204600F01BF8A060D4
:1024D400204600F017F800220421E0606068FFF74E
:1024E40081FF01220921A068FFF77CFF022212214B
:1024F400E068FFF777FF0123A361D1E7F47D0008CB
:1025040031240008F8B50746FFF7ACFF1E4B1E68E0
:10251400B36913B93046FFF7BDFF4836D6E9013435
:10252400013B03D533680BB33668F7E7B4F90C50B5
:10253400D5B9164B04F15800E360656600F047F81E
:10254400FFF796FF08222946C4E90155C4E904555A
:102554002560A56104F15C00FFF737FEC4E90D5561
:10256400C4E912552046F8BD6834D9E70421384639
:10257400FFF762FF044630600028D5D1FFF778FFEB
:102584000C233B60EEE700BFF47D00080100FFFF71
:102594002DE9F84306468846002700F14804D4E9AB
:1025A4000195B9F1010905D52468002CF7D1384605
:1025B400BDE8F883AB89012B07D9B5F90E30013397
:1025C40003D029463046C04707436835E9E77047DA
:1025D400704770470148FFF7FBBF00BF3C05002070
:1025E4000148FFF7F6BF00BF3C050020936810B414
:1025F400013B002B936007DA9469A34201DB0A29AB
:1026040002D110BC00F024BB1368581C1060197070
:10261400084610BC7047F8B506460F461446D51850
:10262400AC4201D1002007E03A46304614F8011BC1
:10263400FFF7DCFF431CF3D1F8BD00002DE9F04F98
:102644000D461446984606469DB018B183690BB9E9
:10265400FFF720FF894B9D421BD175686B6ED9072C
:1026640005D4AB899A0502D4A86DFFF7B1FFAB89F5
:102674001B0701D52B69EBB92946304600F04CFB0A
:10268400C0B16B6EDC070ED54FF0FF301DB0BDE856
:10269400F08F7B4B9D4201D1B568DFE7794B9D42BA
:1026A40008BFF568DAE7AB899805EDD4A86DFFF7A4
:1026B40090FFE9E70023099320238DF82930302384
:1026C4004FF00109CDF80C80DFF8BC818DF82A3079
:1026D40023469A4613F8012B0AB1252AF9D1BAEBFD
:1026E400040B0BD05B46224629463046FFF793FF86
:1026F400013000F0AA80099A5A4409929AF80030ED
:10270400002B00F0A28000234FF0FF32CDE9052317
:102714000AF1010A049307938DF853301A9354462F
:10272400052214F8011B584800F0AAFC049AD8B9F1
:10273400D10644BF20238DF85330130744BF2B2305
:102744008DF853309AF800302A2B15D054460020C7
:102754004FF00A0C079A214611F8013B303B092B34
:102764004ED9B0B1079214E0A0EB080309FA03F3C1
:102774001343A2460493D2E7039B191D1B680391DC
:10278400002BBBBF5B4242F0020207930793B8BF22
:10279400049223782E2B0CD163782A2B35D1039BFA
:1027A40002341A1D1B680392002BB8BF4FF0FF338D
:1027B4000593DFF8D8A003225046217800F060FC8E
:1027C40040B14023A0EB0A0003FA00F0049B01345B
:1027D4000343049314F8011B06222D488DF8281096
:1027E40000F04EFC00283FD02A4B1BBB039B073351
:1027F40023F0070308330393099B3B44099367E7DA
:102804000C4601200CFB0232A5E700234FF00A0C12
:10281400194601340593204610F8012B303A092A51
:1028240003D9002BC5D00591C3E7044601230CFB53
:102834000121F0E703AB00932A463046164B04A966
:10284400AFF300800746781CD6D16B6ED90705D448
:10285400AB899A0502D4A86DFFF7BBFEAB895B0672
:102864003FF512AF099811E703AB00932A463046AF
:10287400094B04A900F082F8E4E700BF187E0008C1
:10288400387E0008F87D0008587E00085E7E000847
:10289400627E0008000000001B2600082DE9F047B6
:1028A400164699468A680B6907469342B8BF134691
:1028B400336091F843200C46DDF820800AB10133DF
:1028C40033602368990642BF336802333360256856
:1028D40015F0060506D104F1190AE36832689B1A5B
:1028E400AB4228DC94F84320131E226818BF01234E
:1028F40092062DD44946384604F14302C0470130BC
:1029040020D02368E56803F00603042B18BF0025D4
:1029140032684FF00006A36808BFAD1A226908BFE9
:1029240025EAE5759342C4BF9B1AED181A34B542E3
:102934001AD1002008E00123524649463846C047D0
:10294400013003D14FF0FF30BDE8F0870135C4E713
:102954003020E11881F843005A1C94F845102244B1
:10296400023382F84310C5E701232246494638461C
:10297400C0470130E6D00136D9E700002DE9FF4712
:102984000F7E9146782F80460C469A460C9D01F1A5
:10299400430207D8622F0AD8002F00F0D980582F9D
:1029A40000F0A48004F1420584F842703AE0A7F1F3
:1029B4006303152BF6D801A151F823F0192A000856
:1029C4002D2A0008A9290008A9290008A929000816
:1029D400A92900082D2A0008A9290008A929000806
:1029E400A9290008A92900083B2B00085D2A000832
:1029F4001D2B0008A9290008A92900085D2B00083F
:102A0400A92900085D2A0008A9290008A9290008A5
:102A1400252B00082B681A1D1B682A6004F1420547
:102A240084F842300123A4E020682968060601F1F5
:102A340004030AD50E682B60002E03DA2D23764298
:102A440084F843300A235E4819E00E6810F0400F02
:102A54002B6018BF36B2EFE72B682068191D296078
:102A6400010601D51E6802E04606FBD51E886F2FBD
:102A74000CBF08230A235248002184F843106568D8
:102A8400002DA8BF2168A560A4BF21F00401216026
:102A94000EB9002D4DD01546B6FBF3F103FB1167BB
:102AA400C75D05F8017D3746BB420E46F4D9082BB5
:102AB4000BD12368DE0708D5236961689942DEBF1C
:102AC400302305F8013C05F1FF35521B22614B46CA
:102AD40021464046CDF800A003AAFFF7DFFE0130EF
:102AE4004CD14FF0FF3004B0BDE8F087344881F892
:102AF40045702968236851F8046B29601D0614D5B4
:102B0400DF0744BF43F0200323601EB9236823F08A
:102B1400200323601023AFE7236843F020032360DE
:102B24007823284884F84530E3E7590648BFB6B20D
:102B3400E6E71546BBE72B682668181D616928601F
:102B440035061B6801D5196002E07006FBD51980B3
:102B5400002315462361BAE72B6800211A1D2A6059
:102B64001D686268284600F08BFA08B1401B60605B
:102B740063682361002384F84330A8E72A46494662
:102B840040462369D0470130ABD023689B0713D458
:102B9400E068039B9842B8BF1846A4E70123324675
:102BA40049464046D04701309BD00135E36803993C
:102BB4005B1AAB42F2DCEBE7002504F11906F5E7FA
:102BC400697E00087A7E000810B50C46B1F90E1033
:102BD40000F064FA0028ABBF636DA3891B1823F4CB
:102BE4008053ACBF6365A38110BD2DE9F0411F463E
:102BF4008B890546DB050C46164605D502230022C3
:102C0400B1F90E1000F0C4F9A389324623F48053BD
:102C1400A38128463B46B4F90E10BDE8F04100F00C
:102C240069B810B50C46B1F90E1000F0B1F9431CA7
:102C3400A38915BF606523F4805343F48053A381B3
:102C440018BFA38110BDB1F90E1000F0D3B8000075
:102C5400F8B50E461446054618B183690BB9FFF75B
:102C640019FC214B9C422BD16C68A369A360A389F6
:102C74001A072FD523696BB323692068F6B2C01AEB
:102C840063693746834204DC2146284600F044F950
:102C940030BBA3680130013BA36023685A1C226047
:102CA4001E706369834204D0A389DB0706D50A2E0C
:102CB40004D12146284600F02FF988B93846F8BDDA
:102CC4000A4B9C4201D1AC68CFE7094B9C4208BF38
:102CD400EC68CAE72146284600F01EF80028CBD04D
:102CE4004FF0FF37EAE700BF187E0008387E00087F
:102CF400F87D000838B50446084611460022054D03
:102D04002A601A46FFF728FA431C02D12B6803B144
:102D1400236038BD40050020324B70B51D6806465F
:102D24000C4625B1AB6913B92846FFF7B3FB2E4B0C
:102D34009C420FD16C68A389B4F90C2019072CD4D8
:102D4400DD0611D40923336042F040034FF0FF3015
:102D5400A3813EE0254B9C4201D1AC68EBE7244BB8
:102D64009C4208BFEC68E6E7580712D5616B41B195
:102D740004F14403994202D03046FFF72FFA0023AE
:102D84006363A38923F02403A3810023636023697D
:102D94002360A38943F00803A38123694BB9A38962
:102DA40003F42073B3F5007F03D02146304600F0CE
:102DB40027F9A089B4F90C2010F001030AD00023EC
:102DC400A36063695B42A361236943B910F0800087
:102DD400BAD170BD810758BF6369A360F4E70020CE
:102DE400F7E700BF28000020187E0008387E00089E
:102DF400F87D000838B50023054D044608462B60CD
:102E040000F080F9431C02D12B6803B1236038BD64
:102E1400400500208A89F8B5054610070C4657D4AA
:102E24004B68002B04DC0B6C002B01DC0020F8BD8C
:102E3400E66A002EFAD0002312F480522F682B6029
:102E440032D0606DA3895A0705D56368C01A636BD5
:102E54000BB1236CC01A00230246E66A2846216A95
:102E6400B047431CA38906D129681D292CD8294AB7
:102E7400CA40D60728D5002262602269D90422609C
:102E840004D5421C01D12B6803B96065616B2F60C6
:102E94000029CBD004F14403994202D02846FFF71D
:102EA4009DF900206063C2E7216A01232846B047E8
:102EB400411CC7D12B68002BC4D01D2B01D0162B6D
:102EC40001D12F60B2E7A38943F04003A381AEE7A9
:102ED4000F69002FAAD0930718BF00230E6808BFFC
:102EE4004B69F61B0F608B60002E9FDD33463A461C
:102EF4002846216AD4F828C0E047002806DCA389C4
:102F04004FF0FF3043F04003A38190E70744361AA3
:102F1400EAE700BF0100402038B50B6905460C46BE
:102F240013B90025284638BD18B183690BB9FFF7DA
:102F3400B1FA144B9C421BD16C68B4F90C30002BD1
:102F4400EFD0626ED00704D4990502D4A06DFFF7C8
:102F54003FFB28462146FFF75DFF636E0546DA070F
:102F6400E0D4A3899B05DDD4A06DFFF732FBD9E73C
:102F7400054B9C4201D1AC68DFE7044B9C4208BF7F
:102F8400EC68DAE7187E0008387E0008F87D00084F
:102F940038B50446084611460022054D2A601A46F3
:102FA40000F0C8F8431C02D12B6803B1236038BD7C
:102FB4004005002070B50E46B1F90E1014460029E4
:102FC4001D4696B008DA0022B6F90C302A601A06BB
:102FD40010D44FF480630EE06A4600F071F80028C4
:102FE400F1DB019A02F47042A2F500535A425A41AD
:102FF4002A60EEE740230020236016B070BD000075
:103004008B8973B59D0706460C4607D504F1470323
:10301400236023610123636102B070BD6A4601AB82
:10302400FFF7C8FF009905463046FFF73FF948B956
:10303400B4F90C309A05EFD423F0030343F00203F0
:10304400A381E3E70D4BB362A389206043F08003BF
:10305400A381009B20616361019B5BB13046B4F99D
:103064000E1000F03FF828B1A38923F0030343F0C6
:103074000103A381A0890543A581CDE7312400087C
:10308400034610B5C9B202449342184601D1002048
:1030940003E0047801338C42F6D110BD38B5044600
:1030A400084611460022054D2A601A4600F04AF8E7
:1030B400431C02D12B6803B1236038BD40050020B6
:1030C40038B50023064D0446084611462B6000F02F
:1030D40021F8431C02D12B6803B1236038BD00BF23
:1030E4004005002038B50023054D044608462B60F2
:1030F40000F018F8431C02D12B6803B1236038BDDB
:10310400400500205822024B4FF0FF301A607047F0
:10311400400500205822024B4FF0FF301A607047E0
:10312400400500205822024B00201A60704700BF5F
:10313400400500205822024B4FF0FF301A607047C0
:10314400400500205822024B4FF0FF301A607047B0
:1031540040050020044A05491368002B08BF0B46AC
:1031640018441060184670474405002048050020A4
:10317400506C65617365206D6F6469667920796F41
:103184007572206E756D00006B657931206973204E
:10319400696E63006B657930206973206465630030
:1031A40000000000000000000000000000002020DB
:1031B40020202000002000002828500000000000EB
:1031C4000000000000005050F85050F8505000002B
:1031D400002070A8A0603028A8702000000048A833
:1031E400B0A874345448000000002050506CA8A8C3
:1031F40094680000404080000000000000000000CF
:10320400081010202020202010100800402020103A
:10321400101010102020400000000020A87070A89A
:103224002000000000000010107C101000000000BE
:10323400000000000000000040408000000000008A
:1032440000FC00000000000000000000000000007E
:1032540000400000000408081010202040408000B6
:1032640000007088888888888870000000002060CA
:10327400202020202070000000007088881020404A
:1032840080F800000000708808300808887000008A
:1032940000001030305090F8103800000000F88022
:1032A40080F08808887000000000304880B0C8882A
:1032B40088700000000078081010202020200000F2
:1032C400000070888870888888700000000070880A
:1032D400889868089060000000000000200000004A
:1032E400002000000000000000200000002020005A
:1032F40000000810204040201008000000000000DA
:10330400FC00FC0000000000000040201008081031
:103314002040000000007088881020200020000059
:103324000000384494B4B4B84438000000002020AD
:103334003050507848CC00000000F04848704848AD
:1033440048F0000000007888808080808870000049
:103354000000F0484848484848F000000000F84899
:103364005070504048F800000000F8485070504039
:1033740040E000000000384880809C88483000000D
:103384000000CC484878484848CC00000000F820A9
:103394002020202020F8000000007C1010101010C5
:1033A400101090E00000EC485060504848EC0000D9
:1033B4000000E0404040404044FC00000000DCD8F5
:1033C400D8D8A8A8A8AC00000000DC486868585801
:1033D40048E80000000070888888888888700000A9
:1033E4000000F0484870404040E000000000708851
:1033F400888888E8987018000000F04848705048A1
:1034040048EC0000000078888060100888F0000014
:103414000000F8A820202020207000000000CC48E4
:1034240048484848483000000000CC4848505030D4
:10343400202000000000A8A8A8A870505050000048
:103444000000D8505020205050D800000000D85020
:1034540050502020207000000000F89010202040E0
:1034640048F8000038202020202020202020380088
:103474000040402020201010100808007010101088
:1034840010101010101070002050000000000000F8
:10349400000000000000000000000000000000FC2C
:1034A40040200000000000000000000000000000B8
:1034B40000304838483C000000C040404070484854
:1034C4004870000000000000003848404830000008
:1034D4000018080808384848483C0000000000006C
:1034E400003048784038000000182420207820203C
:1034F4002078000000000000003C48304038443888
:1035040000C040404070484848EC000000202000C3
:103514000060202020700000001010000030101007
:10352400101010E000C040404058506050C80000E7
:1035340000E020202020202020F8000000000000CF
:1035440000F0A8A8A8A800000000000000F0484867
:1035540048EC0000000000000030484848300000FB
:103564000000000000F04848487040E000000000FF
:10357400003848484838081C0000000000D8604063
:1035840040E00000000000000078403008780000AF
:1035940000000020207820202038000000000000D7
:1035A40000D84848483C00000000000000D85050B3
:1035B400202000000000000000A8A8705050000067
:1035C4000000000000D8502050D800000000000087
:1035D40000CC4848301020C00000000000781020C3
:1035E400207800001810101010301010101018005F
:1035F4001010101010101010101010106020202047
:1036040020102020202060006890000000000000AE
:1036140000000000000000000000000000000000A6
:103624000000000000000010101010101010000026
:1036340010100000001224244800000000000000C4
:10364400000000000000001212127E2424247E24B4
:10365400242400000000083C4A4A48380C0A0A4A5C
:103664004A3C080800000044A4A8A8B0541A2A2A16
:103674004A44000000000030484848506EA4949822
:103684008976000000602020400000000000000057
:1036940000000000000204080810101010101008A8
:1036A4000804020000402010100808080808081048
:1036B40010204000000000001010D63838D610103A
:1036C4000000000000000000000808087F08080847
:1036D40000000000000000000000000000000000E6
:1036E4006020204000000000000000007E00000078
:1036F40000000000000000000000000000000000C6
:103704006060000000000204040408081010102087
:1037140020404000000000182442424242424242FB
:1037240024180000000000083808080808080808E1
:10373400083E00000000003C4242420204081020FF
:10374400427E00000000003C42420204180402428F
:10375400423C0000000000040C0C142424447F04A8
:10376400041F00000000007E4040407844020242F2
:1037740044380000000000182440405C6242424289
:10378400221C00000000007E4204040808101010EF
:10379400101000000000003C42424224182442421F
:1037A400423C00000000003844424242463A0202D1
:1037B4002418000000000000000018180000000099
:1037C40018180000000000000000001000000000B5
:1037D40000101010000000020408102040201008FF
:1037E400040200000000000000007E00007E0000D3
:1037F400000000000000004020100804020408102B
:10380400204000000000003C424262040808080016
:103814001818000000000038445AAAAAAAAAAA5CF0
:10382400423C00000000001010182828243C4442A8
:1038340042E70000000000F8444444784442424215
:1038440044F800000000003E4242808080808042B4
:1038540044380000000000F84442424242424242DE
:1038640044F80000000000FC4248487848484042C0
:1038740042FC0000000000FC4248487848484040B0
:1038840040E000000000003C44448080808E84447A
:1038940044380000000000E7424242427E42424275
:1038A40042E700000000007C1010101010101010EF
:1038B400107C00000000003E0808080808080808FA
:1038C400080888F0000000EE44485070504848440E
:1038D40044EE0000000000E04040404040404040D2
:1038E40042FE0000000000EE6C6C6C6C6C5454548E
:1038F40054D60000000000C7626252524A4A4A4647
:1039040046E2000000000038448282828282828281
:1039140044380000000000FC424242427C404040E7
:1039240040E000000000003844828282828282B239
:103934004C380600000000FC4242427C48484444A3
:1039440042E300000000003E4242402018040242CC
:10395400427C0000000000FE9210101010101010A5
:1039640010380000000000E7424242424242424214
:10397400423C0000000000E7424244242428281866
:1039840010100000000000D654545454546C2828DD
:1039940028280000000000E74224241818182424D2
:1039A40042E70000000000EE4444282810101010E4
:1039B400103800000000007E840408081020204213
:1039C40042FC0000001E10101010101010101010F7
:1039D40010101E00000040202020101010080804C1
:1039E40004040202007808080808080808080808FF
:1039F40008087800001824000000000000000000FF
:103A040000000000000000000000000000000000B2
:103A1400000000FF00601000000000000000000033
:103A2400000000000000000000000038440C344492
:103A34004C36000000000000C0404058644242423E
:103A440064580000000000000000001C22404040B8
:103A5400221C0000000000000602023E42424242D4
:103A6400463B0000000000000000003C42427E4053
:103A7400423C0000000000000C12107C10101010DA
:103A8400107C0000000000000000003E4444384068
:103A94003C42423C00000000C040405C6242424262
:103AA40042E70000000000303000007010101010D9
:103AB400107C00000000000C0C00001C0404040432
:103AC4000404447800000000C040404E4850704850
:103AD40044EE0000000000107010101010101010C0
:103AE400107C000000000000000000FE4949494924
:103AF40049ED000000000000000000DC6242424288
:103B040042E70000000000000000003C4242424244
:103B1400423C000000000000000000D86442424221
:103B2400645840E0000000000000001A26424242AF
:103B3400261A020700000000000000EE32202020B8
:103B440020F80000000000000000003E42403C025B
:103B5400427C0000000000000010107C10101010C7
:103B6400120C000000000000000000C64242424265
:103B7400463B000000000000000000EE44442828FA
:103B84001010000000000000000000DB894A5A54B5
:103B940024240000000000000000007624181818F7
:103BA400246E000000000000000000E742242418F6
:103BB40018101060000000000000007E440810107F
:103BC400227E000000030404040404040804040422
:103BD4000404030008080808080808080808080876
:103BE4000808080800C020202020202010202020C1
:103BF4002020C000205A0400000000000000000043
:103C040000000000000000000000000000000000B0
:103C140000000000000000000000000000000000A0
:103C24000000000000000000000000000000000090
:103C34000000000000000000000000000600060074
:103C44000600060006000600060002000400040048
:103C5400040000000000000006000600060000004A
:103C64000000000000000000066006600CC019801F
:103C7400110022000000000000000000000000000D
:103C84000000000000000000000000000000000030
:103C94000000000000000000000000000840084090
:103CA400084008407FE07FE01040108010801080C2
:103CB40010807FE07FE02080208020802080000032
:103CC40000000000000000000000020002000F805D
:103CD4001AC032C033C032001A000E00070003803D
:103CE400038002C032C03AC032C012800F0002000A
:103CF40002000000000000000000000070805080FE
:103D04008900890089008A008A005C0075C005402A
:103D14000A200A20122012201220214021C0000073
:103D24000000000000000000000000001C0036003D
:103D34003600360036003600340019E038805880EA
:103D4400CC80CC80C680C700C31063903CE00000E8
:103D540000000000000000003000380008000800E7
:103D6400100020000000000000000000000000001F
:103D7400000000000000000000000000000000003F
:103D8400000000000000000000200040008001004E
:103D94000100020002000400040004000400040006
:103DA4000400040002000200010001000080004041
:103DB4000020000000000000400020001000080067
:103DC40008000400040002000200020002000200D5
:103DD4000200020004000400080008001000200093
:103DE400400000000000000000000000000000008F
:103DF400020003000200623072F00B800F807AF040
:103E04006230020002000200000000000000000016
:103E1400000000000000000000000000000000009E
:103E24000000020002000200020002007FF0020013
:103E34000200020002000200000000000000000076
:103E4400000000000000000000000000000000006E
:103E5400000000000000000000000000000000005E
:103E640000000000000000003000380008000800D6
:103E7400100020000000000000000000000000000E
:103E84000000000000000000000000007FE00000CF
:103E9400000000000000000000000000000000001E
:103EA400000000000000000000000000000000000E
:103EB40000000000000000000000000000000000FE
:103EC4000000000000000000380038003800000046
:103ED400000000000000000000200060004000C05E
:103EE40000800080010001000200020006000400BE
:103EF40004000800080010001000300020006000DA
:103F040040000000000000000000000000000F005E
:103F1400198030C030C06060606060606060606064
:103F240060606060606030C030C019800F000000C5
:103F3400000000000000000000000000000002007B
:103F44003E00060006000600060006000600060005
:103F54000600060006000600060006003FC000003A
:103F640000000000000000000000000000001F002E
:103F7400218040C060C060C000C000800180030098
:103F84000600040008001040204060407FC000008C
:103F940000000000000000000000000000001E00FF
:103FA4006300618061800180018003000E00018054
:103FB400008000C000C060C060C061801F000000BD
:103FC400000000000000000000000000000001806C
:103FD4000180038005800580098011801180218083
:103FE40041807FF0018001800180018007E00000B2
:103FF40000000000000000000000000000003FC0BE
:10400400200020002000200020002F00318020C04C
:1040140000C000C060C060C0418021801F0000005B
:104024000000000000000000000000000000078005
:1040340018C030C0300020006000678068C0706025
:104044006060606060602060304018C00F00000055
:1040540000000000000000000000000000001FE05D
:1040640030602040208000800080010001000200B8
:10407400020002000600060006000600060000001A
:1040840000000000000000000000000000001F808D
:1040940030C0606060606060304038C00F001380E2
:1040A40030C0606060606060606030C00F8000009D
:1040B40000000000000000000000000000000F00ED
:1040C400308030C0604060606060606060E031609B
:1040D4001E60006000C000C0308031801E000000FF
:1040E40000000000000000000000000000000000CC
:1040F40000000000000000000700070007000000A7
:104104000000000000000000070007000700000096
:10411400000000000000000000000000000000009B
:10412400000000000000000006000600000000007F
:10413400000000000000000000000600060002006D
:104144000400040000000000000000000020004003
:10415400008001000200040008001000200010008C
:10416400080004000200010000800040002000005C
:10417400000000000000000000000000000000003B
:1041840000000000000000007FE0000000000000CC
:104194007FE00000000000000000000000000000BC
:1041A40000000000000000000000000020001000DB
:1041B40008000400020001000080004000200040CC
:1041C400008001000200040008001000200000002C
:1041D400000000000000000000000000000007C014
:1041E4001860203020303030303000E00180020090
:1041F40002000200000000000700070007000000A2
:10420400000000000000000000000000070018C0CB
:10421400304033A026A066A065A06D206D206D20DF
:104224006D206D4027803020304018C00F00000002
:104234000000000000000000000000000000060074
:1042440006000A000B00090009001100118010800B
:104254001F8020C020C0204040404060F0F000009B
:1042640000000000000000000000000000007F00CB
:1042740031C030C030C030C030C031803F0030C0A9
:104284003040306030603060306030C07F8000008B
:10429400000000000000000000000000000007C053
:1042A40018C0306030202020600060006000600092
:1042B4006000600060203020304018C00F00000013
:1042C4000000000000000000000000000000FE00EC
:1042D400318030C030C03060306030603060306079
:1042E40030603060306030C030C03180FE0000008B
:1042F4000000000000000000000000000000FFC0FB
:1043040060C0602060206000610061007F00610087
:10431400610061006000602060206040FFC0000018
:104324000000000000000000000000000000FFC0CA
:1043340060C0602060206000610061007F00610057
:10434400610061006000600060006000F80000002F
:1043540000000000000000000000000000000F004A
:1043640018803040304020406000600060006000F1
:1043740063F060C060C030C030C018C00F000000DF
:104384000000000000000000000000000000F0F049
:104394006060606060606060606060607FE060607A
:1043A400606060606060606060606060F0F00000A9
:1043B40000000000000000000000000000003FC0FA
:1043C40006000600060006000600060006000600B9
:1043D4000600060006000600060006003FC00000B6
:1043E40000000000000000000000000000001FE0CA
:1043F40003000300030003000300030003000300A1
:104404000300030003000300030003000300630030
:1044140066003C0000000000000000000000F3C043
:10442400618063006200640068006C0074007600C0
:104434006200630061006180608060C0F1E00000A0
:104444000000000000000000000000000000F80070
:104454006000600060006000600060006000600058
:10446400600060006000602060206040FFC00000C9
:104474000000000000000000000000000000E0E078
:1044840061C061C071C071C072C072C052C05AC0F4
:104494005AC05CC04CC04CC04CC048C0E1E00000F5
:1044A400000000000000000000000000000071F0A7
:1044B4003040384038402C402C4026402640224092
:1044C4002340214021C021C020C020C0F84000006A
:1044D40000000000000000000000000000000F00C9
:1044E400198030C03040606060606060606060600F
:1044F400606060606060304030C019800F00000070
:104504000000000000000000000000000000FF00A8
:1045140060C06060606060606060606061C07F0017
:10452400600060006000600060006000F80000004F
:1045340000000000000000000000000000000F0068
:10454400198030C0304060606060606060606060AE
:10455400606060606E60324033C019800F0001E01B
:1045640000C0000000000000000000000000FF8008
:1045740060C0606060606060606060C07F00620016
:1045840063006100618060C060C06060F070000022
:1045940000000000000000000000000000001F40B8
:1045A40030C060406040600070003C001F0007C0E5
:1045B40001C000E040604060606030C00F800000D7
:1045C40000000000000000000000000000007FE088
:1045D4004620861086100600060006000600060027
:1045E4000600060006000600060006001F80000004
:1045F400000000000000000000000000000078E05F
:104604003040304030403040304030403040304026
:104614003040304030403040304018800F000000BF
:104624000000000000000000000000000000F0E0B6
:1046340060402080208030803080110011001900FB
:1046440019000A000A000E000C0004000400000017
:104654000000000000000000000000000000EF70F7
:1046640046204220622062202640264027402740E0
:10467400394039801980198011801100110000001F
:10468400000000000000000000000000000079E0CD
:1046940030801080188009000D0006000400060018
:1046A40006000B0009001180108020C071E000009A
:1046B4000000000000000000000000000000F0F016
:1046C400602020403040108018801D000D000E0036
:1046D4000600060006000600060006001F80000013
:1046E40000000000000000000000000000003FE0A7
:1046F400304060C0408001800100020002000400DC
:104704000400080018001020302020407FC0000062
:10471400000000000000000007C0040004000400C2
:104724000400040004000400040004000400040065
:104734000400040004000400040004000400040055
:1047440007C000000000000000000000200020005E
:104754001000100008000800080004000400020013
:1047640002000300010001000080008000400040BE
:1047740000400020000000003E0002000200020091
:104784000200020002000200020002000200020015
:104794000200020002000200020002000200020005
:1047A4003E00000000000600090010800000000028
:1047B40000000000000000000000000000000000F5
:1047C40000000000000000000000000000000000E5
:1047D40000000000000000000000000000000000D5
:1047E40000000000000000000000000000000000C5
:1047F40000000000000000000000000000000000B5
:104804000000FFF000000000180006000000000097
:104814000000000000000000000000000000000094
:104824000000000000000000000000000000000084
:104834000000000000000000000000000000000074
:1048440000000000000000000F8030C030C000C035
:1048540007C038C070C060C060C071D03E70000036
:1048640000000000000000000000000010007000C4
:10487400300030003000300033803CC0386030609D
:104884003060306030603060304038C027800000D5
:104894000000000000000000000000000000000014
:1048A40000000000000000000F00318031806180B2
:1048B4006000600060006040304030800F00000005
:1048C400000000000000000000000000004003C0E1
:1048D40000C000C000C000C01EC031C030C060C0F5
:1048E40060C060C060C060C020C031E01E800000B5
:1048F40000000000000000000000000000000000B4
:104904000000000000000000078018C01040306064
:1049140030603FE03000300018201840078000006D
:10492400000000000000000000000000000003C0C0
:1049340006600C600C000C007F800C000C000C0066
:104944000C000C000C000C000C000C003F8000005C
:104954000000000000000000000000000000000053
:1049640000000000000000000FE01B603180318077
:10497400318019801F0030003F0033C060C060C028
:1049840071C01F0000000000000000001000700053
:104994003000300030003000378038C030C030C0C4
:1049A40030C030C030C030C030C030C079E000000A
:1049B40000000000000000000000000000000600ED
:1049C40006000000000002003E000600060006008B
:1049D4000600060006000600060006003FC00000B0
:1049E4000000000000000000000000000000038040
:1049F40003800000000000800F800180018001809E
:104A0400018001800180018001800180018001809A
:104A140033003E00000000000000000010007000A1
:104A2400300030003000300031C03100310032003D
:104A340036003A0031003180308030C079E0000027
:104A440000000000000000000000000002003E0022
:104A54000600060006000600060006000600060022
:104A64000600060006000600060006003FC000001F
:104A74000000000000000000000000000000000032
:104A84000000000000000000ECE0776066606660F3
:104A9400666066606660666066606660FFF000007F
:104AA4000000000000000000000000000000000002
:104AB4000000000000000000778038C030C030C023
:104AC40030C030C030C030C030C030C079E00000E9
:104AD40000000000000000000000000000000000D2
:104AE40000000000000000000F00198030C060606A
:104AF400606060606060606030C030C00F000000C3
:104B040000000000000000000000000000000000A1
:104B14000000000000000000778038C03060306082
:104B2400306030603060306030C038C03780300072
:104B340030007C00000000000000000000000000C5
:104B440000000000000000001E4031C030C060C002
:104B540060C060C060C060C020C031C01EC000C062
:104B640000C003E00000000000000000000000009E
:104B74000000000000000000F9C01A601C6018006A
:104B8400180018001800180018001800FF00000092
:104B94000000000000000000000000000000000011
:104BA40000000000000000000FC038C0304030405A
:104BB4001C000F0003C020C020C031C03F80000093
:104BC40000000000000000000000000000000000E1
:104BD400040004000C000C007F800C000C000C008E
:104BE4000C000C000C000C000C400C400780000072
:104BF40000000000000000000000000000000000B1
:104C0400000000000000104071C030C030C030C04F
:104C140030C030C030C030C030C039E01E80000029
:104C24000000000000000000000000000000000080
:104C3400000000000000000078E030401080108088
:104C4400188009000D000D00060006000400000095
:104C54000000000000000000000000000000000050
:104C64000000000000000000EF7046206220264093
:104C740026403740398019801980198010000000BF
:104C84000000000000000000000000000000000020
:104C940000000000000000003DE0188008800D00C6
:104CA4000600060007000900108010C079E000002B
:104CB40000000000000000000000000000000000F0
:104CC400000000000000000079E0108010801080D7
:104CD400090009000D000600060006000400040097
:104CE4002400380000000000000000000000000064
:104CF40000000000000000003F802180230022000B
:104D0400060004000C001840104030C03F80000032
:104D1400000000000000000000C0010001000100CC
:104D24000100010001000100010002000400020072
:104D34000100010001000100010001000100010067
:104D440000C0000002000200020002000200020093
:104D5400020002000200020002000200020002003F
:104D6400020002000200020002000200020002002F
:104D740002000200000000003000080008000800E3
:104D840008000800080008000800040002000400ED
:104D940008000800080008000800080008000800CF
:104DA40030000000000038004420432001C000000F
:104DB40000000000000000000000000000000000EF
:104DC40000000000000000000000000000000000DF
:104DD40000000000000000000000000000000000CF
:104DE40000000000000000000000000000000000BF
:104DF40000000000000000000000000000000000AF
:104E0400000000000000000000000000000000009E
:104E1400000000000000000000000000000000008E
:104E2400000000000000000000000000000000007E
:104E3400000000000000000000000000000000006E
:104E4400000000000000000000000000000000005E
:104E5400000000000000000000000000000000004E
:104E640003C003C003C003C003C003C001C001806A
:104E740001800180018001800180018001800000A7
:104E840000000000018003C003C001800000000096
:104E9400000000000000000000000000000000000E
:104EA40000000000000000000000000000000000FE
:104EB40000000000000000000000000000000000EE
:104EC40000000000000000000000000000000000DE
:104ED40000000000000000000318073807380E70B7
:104EE4000C6018C0318021000000000000000000A8
:104EF40000000000000000000000000000000000AE
:104F0400000000000000000000000000000000009D
:104F1400000000000000000000000000000000008D
:104F2400000000000000000000000000000000007D
:104F3400000000000000000000000000000000006D
:104F4400000000000000000000000000000000005D
:104F5400000000000000000000000000000000004D
:104F6400040804080408040804087FFE7FFE7FFE8A
:104F74000810081008100810081008107FFE7FFEA3
:104F84007FFE183010201020102010200000000098
:104F9400000000000000000000000000000000000D
:104FA40000000000000000000000000000000000FD
:104FB40000000000000000000000000000000000ED
:104FC40000000000000000000000000000000000DD
:104FD40000000000000000000000000001000100CB
:104FE40003C00D3009181918193819381D000D009F
:104FF4000F00070003C001E001F00130013801187F
:105004003918391831183130196007C0010001000E
:10501400010000000000000000000000000000008B
:10502400000000000000000000000000000000007C
:10503400000000000000000000000000000000006C
:10504400000000000000000000000000000000005C
:10505400000000000000000000000000000000004C
:1050640038106C104420C620C640C640C640C680D6
:10507400C68044806D38396C024402C602C604C638
:1050840004C608C608C60844106C103800000000A6
:10509400000000000000000000000000000000000C
:1050A40000000000000000000000000000000000FC
:1050B40000000000000000000000000000000000EC
:1050C40000000000000000000000000000000000DC
:1050D40000000000000000000000000000000000CC
:1050E4000F0019003180318031803180310033006C
:1050F4003A001C00387C3C104C10CE10C620C7204F
:10510400C320C1C0C1C260E6317C1E38000000006B
:10511400000000000000000000000000000000008B
:10512400000000000000000000000000000000007B
:10513400000000000000000000000000000000006B
:10514400000000000000000000000000000000005B
:10515400000000000000000038003C003C000C008F
:105164000C00080030006000000000000000000097
:10517400000000000000000000000000000000002B
:10518400000000000000000000000000000000001B
:10519400000000000000000000000000000000000B
:1051A40000000000000000000000000000000000FB
:1051B40000000000000000000000000000000000EB
:1051C40000000000000000000000000000000000DB
:1051D40000000000000000000002000400080018A5
:1051E400003000200060004000C000C00180018049
:1051F400018001800180018001800180018000C064
:1052040000C00040006000200030001800080004C6
:105214000002000000000000000000000000000088
:10522400000000000000000000000000000000007A
:10523400000000000000000000000000000000006A
:10524400000000000000000000000000000000005A
:1052540000000000000000004000200010001800C2
:105264000C0004000600020003000300018001801A
:1052740001800180018001800180018001800300A0
:1052840003000300060004000C00180010002000B6
:1052940040000000000000000000000000000000CA
:1052A40000000000000000000000000000000000FA
:1052B40000000000000000000000000000000000EA
:1052C40000000000000000000000000000000000DA
:1052D40000000000000000000000000000000000CA
:1052E4000000000000C001C001C030C6388E1C9C04
:1052F40006B001C001C006B01C9C388E318601C0C6
:1053040001C001C000000000000000000000000017
:105314000000000000000000000000000000000089
:105324000000000000000000000000000000000079
:105334000000000000000000000000000000000069
:105344000000000000000000000000000000000059
:105354000000000000000000000000000000000049
:1053640000000000000000800080008000800080B9
:10537400008000803FFE008000800080008000806C
:105384000080008000000000000000000000000019
:105394000000000000000000000000000000000009
:1053A40000000000000000000000000000000000F9
:1053B40000000000000000000000000000000000E9
:1053C40000000000000000000000000000000000D9
:1053D40000000000000000000000000000000000C9
:1053E40000000000000000000000000000000000B9
:1053F40000000000000000000000000000000000A9
:105404000000000038003C003C000C000C000800C8
:1054140030006000000000000000000000000000F8
:105424000000000000000000000000000000000078
:105434000000000000000000000000000000000068
:105444000000000000000000000000000000000058
:105454000000000000000000000000000000000048
:105464000000000000000000000000000000000038
:10547400000000007FFE00000000000000000000AB
:105484000000000000000000000000000000000018
:105494000000000000000000000000000000000008
:1054A40000000000000000000000000000000000F8
:1054B40000000000000000000000000000000000E8
:1054C40000000000000000000000000000000000D8
:1054D40000000000000000000000000000000000C8
:1054E40000000000000000000000000000000000B8
:1054F40000000000000000000000000000000000A8
:105504000000000018003C003C00180000000000EF
:105514000000000000000000000000000000000087
:105524000000000000000000000000000000000077
:105534000000000000000000000000000000000067
:105544000000000000000000000000000000000057
:10555400000000000000000000000002000600043B
:10556400000C00080018001000300020006000400B
:1055740000C0008001800100030002000600040056
:105584000C000800180010003000200060004000EB
:105594000000000000000000000000000000000007
:1055A40000000000000000000000000000000000F7
:1055B40000000000000000000000000000000000E7
:1055C40000000000000000000000000000000000D7
:1055D40000000000000000000000000000000000C7
:1055E40003C006200C30181818181808300C300C9A
:1055F400300C300C300C300C300C300C300C300CC7
:105604001808181818180C30062003C000000000F1
:105614000000000000000000000000000000000086
:105624000000000000000000000000000000000076
:105634000000000000000000000000000000000066
:105644000000000000000000000000000000000056
:105654000000000000000000000000000000000046
:10566400008001801F800180018001800180018011
:10567400018001800180018001800180018001801E
:10568400018001800180018003C01FF80000000038
:105694000000000000000000000000000000000006
:1056A40000000000000000000000000000000000F6
:1056B40000000000000000000000000000000000E6
:1056C40000000000000000000000000000000000D6
:1056D40000000000000000000000000000000000C6
:1056E40007E008381018200C200C300C300C000C8B
:1056F400001800180030006000C0018003000200A0
:10570400040408041004200C3FF83FF800000000D3
:105714000000000000000000000000000000000085
:105724000000000000000000000000000000000075
:105734000000000000000000000000000000000065
:105744000000000000000000000000000000000055
:105754000000000000000000000000000000000045
:1057640007C018603030301830183018001800188E
:105774000030006003C0007000180008000C000C2A
:10578400300C300C30083018183007C0000000000E
:105794000000000000000000000000000000000005
:1057A40000000000000000000000000000000000F5
:1057B40000000000000000000000000000000000E5
:1057C40000000000000000000000000000000000D5
:1057D40000000000000000000000000000000000C5
:1057E4000060006000E000E00160016002600460AD
:1057F40004600860086010603060206040607FFCD6
:105804000060006000600060006003FC00000000B5
:105814000000000000000000000000000000000084
:105824000000000000000000000000000000000074
:105834000000000000000000000000000000000064
:105844000000000000000000000000000000000054
:105854000000000000000000000000000000000044
:105864000FFC0FFC100010001000100010001000BE
:1058740013E0143018181008000C000C000C000C75
:10588400300C300C20182018183007C0000000001D
:105894000000000000000000000000000000000004
:1058A40000000000000000000000000000000000F4
:1058B40000000000000000000000000000000000E4
:1058C40000000000000000000000000000000000D4
:1058D40000000000000000000000000000000000C4
:1058E40001E006180C180818180010001000300009
:1058F40033E0363038183808300C300C300C300CAB
:10590400300C180C18080C180E3003E000000000CE
:105914000000000000000000000000000000000083
:105924000000000000000000000000000000000073
:105934000000000000000000000000000000000063
:105944000000000000000000000000000000000053
:105954000000000000000000000000000000000043
:105964001FFC1FFC100830102010202000200040D5
:10597400004000400080008001000100010001009F
:105984000300030003000300030003000000000001
:105994000000000000000000000000000000000003
:1059A40000000000000000000000000000000000F3
:1059B40000000000000000000000000000000000E3
:1059C40000000000000000000000000000000000D3
:1059D40000000000000000000000000000000000C3
:1059E40007E00C301818300C300C300C380C380828
:1059F4001E180F2007C018F030783038601C600C77
:105A0400600C600C600C3018183007C000000000F7
:105A14000000000000000000000000000000000082
:105A24000000000000000000000000000000000072
:105A34000000000000000000000000000000000062
:105A44000000000000000000000000000000000052
:105A54000000000000000000000000000000000042
:105A640007C01820301030186008600C600C600CFF
:105A7400600C600C701C302C186C0F8C000C00181F
:105A8400001800103030306030C00F80000000007B
:105A94000000000000000000000000000000000002
:105AA40000000000000000000000000000000000F2
:105AB40000000000000000000000000000000000E2
:105AC40000000000000000000000000000000000D2
